S01500004156525F736C6565706D6F64652E7372656309
S11300000C9466000C9478000C9478000C9478009E
S11300100C9478000C9478000C9478000C9478007C
S11300200C94C9000C9478000C9478000C9478001B
S11300300C9478000C9478000C9478000C9478005C
S11300400C9478000C9478000C9478000C9478004C
S11300500C9478000C9478000C9478000C9478003C
S11300600C9478000C9478000C9478000C9478002C
S11300700C9478000C9478000C9478000C9478001C
S11300800C9478000C9478000C9478000C9478000C
S11300900C9478000C9478000C9478000C947800FC
S11300A00C9478000C9478000C9478000C947800EC
S11300B00C9478000C9478000C9478000C947800DC
S11300C00C9478000C9478000C94780011241FBED2
S11300D0CFEFD8E0DEBFCDBF21E0A0E0B1E001C0AA
S11300E01D92A130B207E1F70E9489000C94D80058
S11300F00C940000E0E6F0E080818861808387E46E
S11301008083089510920001809100018823E1F317
S113011008950E947A00789483B7817F83BF83B760
S1130120816083BF889583B78E7F83BF0E948200DE
S113013083B7817F8C6083BF83B7816083BF8895D9
S113014083B78E7F83BF0E94820083B7817F8460E0
S113015083BF83B7816083BF889583B78E7F83BF56
S113016083B7817F846083BF83B7816083BF8895B1
S113017083B78E7F83BF83B7817F846083BF83B758
S1130180816083BF889583B78E7F83BF0E9482007E
S1130190C3CF1F920F920FB60F9211248F9381E059
S11301A0809300018F910F900FBE0F901F901895B0
S10701B0F894FFCFED
S9030000FC
